:020000040800F2
:10000000FF4F0020B9170008FD170008FD17000872
:10001000FD170008FD170008FD170008000000008C
:10002000000000000000000000000000FD170008B4
:10003000FD17000800000000FD1700084D01000832
:10004000FD170008FD170008FD170008FD17000840
:10005000FD170008FD170008FD170008FD17000830
:10006000FD170008FD170008FD170008FD17000820
:10007000FD170008FD170008FD170008FD17000810
:10008000FD170008FD170008FD170008FD17000800
:10009000FD170008FD170008FD170008FD170008F0
:1000A000FD170008FD170008FD170008FD170008E0
:1000B000FD170008FD170008FD170008FD170008D0
:1000C000FD170008FD170008FD170008FD170008C0
:1000D000FD170008FD170008B90D0008FD170008FE
:1000E000FD170008FD170008FD17000800000000BC
:1000F0000000000000000000000000000000000000
:0C01000000000000000000005FF808F1A3
:10010C0010B5054C237833B9044B13B10448AFF345
:10011C0000800123237010BD3C040020000000006F
:10012C00CC19000808B5034B1BB103490348AFF3C6
:10013C00008008BD0000000040040020CC1900081D
:10014C0080B400AF064B1B68002B04D0044B1B681B
:10015C00013B034A136000BFBD4680BC704700BF23
:10016C005804002080B500AF00F09AF800F028F891
:10017C0000F00BF800F0A0FD40F6A66000F006FFC2
:10018C0000F074FF00F07CFFFCE780B400AF0A4B7A
:10019C009B69094A43F010039361084B5B68074A5B
:1001AC0043F4E0035360054B4FF400521A6100BF57
:1001BC00BD4680BC704700BF0010024000100140DB
:1001CC0080B400AF074B9B69064A43F0010393616F
:1001DC00054B5B68044A43F00073536000BFBD4697
:1001EC0080BC7047001002400000014080B400AF9A
:1001FC002A4B1B68294A43F00103136000BF274BAD
:10020C001B6803F00203002BF9D0244B1B68234A14
:10021C0023F0F8031360214B1B68204A43F0800342
:10022C0013601E4B00225A6000BF1C4B5B6803F02E
:10023C000C03002BF9D1194B1B68184A23F080735F
:10024C00136000BF154B1B6803F00073002BF9D132
:10025C00124B1B68114A23F4803313600F4B1B683D
:10026C000E4A23F40023136000BF0C4B1B6803F4ED
:10027C000033002BF9D1094B1B68084A23F4802367
:10028C001360064B5B6A054A43F080735362034B61
:10029C0000229A6000BFBD4680BC7047001002402F
:1002AC0080B500AF304B1B682F4A43F4803313608A
:1002BC0000BF2D4B1B6803F40033002BF9D02B4BE4
:1002CC001B682A4A43F010031360284B1B68274A0B
:1002DC0043F002031360244B5B68234A43F4E0139E
:1002EC005360214B5B68204A23F4003353601E4B50
:1002FC005B681D4A43F4803353601B4B5B681A4A9E
:10030C0023F0F0035360184B5B68174A43F4806387
:10031C005360154B5B68144A23F460535360124BC3
:10032C001B68114A43F4002313600F4B1B680E4AE1
:10033C0043F08073136000BF0B4B1B6803F000731A
:10034C00002BF9D0084B5B68074A43F0020353605B
:10035C0000BF054B5B6803F00803002BF9D000F0DD
:10036C006FF800BF80BD00BF0010024000200240AB
:10037C0080B483B000AF78600C4B1A687B68B2FB1A
:10038C00F3F3013B0A4A23F07F435360084B6FF0B1
:10039C007F429A60064B1B68054A43F007031360C3
:1003AC0000BF0C37BD4680BC704700BF000000206A
:1003BC0010E000E080B483B000AF786002E07B68AE
:1003CC00013B7B607B68002BF9D100BF00BF0C3771
:1003DC00BD4680BC704700BF80B400AF154B1B6896
:1003EC00144A43F001031360124B5A681149124B23
:1003FC0013404B600F4B1B680E4A23F0847323F49D
:10040C00803313600B4B1B680A4A23F48023136060
:10041C00084B5B68074A23F4FE035360054B4FF40B
:10042C001F029A60054B4FF000629A6000BFBD46F8
:10043C0080BC7047001002400000FFF800ED00E0A7
:10044C0080B485B000AF0023FB600023BB600023A9
:10045C007B602F4B5B6803F00C03FB60FB68082B85
:10046C0011D0FB68082B3AD8FB68002B03D0FB6833
:10047C00042B04D033E0274B274A1A6033E0254B7A
:10048C00254A1A602FE0224B5B6803F47013BB60A3
:10049C001F4B5B6803F480337B60BB689B0C02339F
:1004AC00BB607B68002B06D1BB681C4A02FB03F3C4
:1004BC00184A136017E0164B5B6803F40033002BEB
:1004CC0006D0BB68154A02FB03F3124A13600AE01C
:1004DC00BB68114A02FB03F30E4A136003E00D4B99
:1004EC000D4A1A6000BF0A4B5B681B0903F00F032F
:1004FC000B4AD35CFB60074B1A68FB6822FA03F3C8
:10050C00044A136000BF1437BD4680BC704700BF5F
:10051C00001002400000002000127A0000093D008B
:10052C00E419000880B584B000AF03460A46FB719D
:10053C001346BB71124B4FF080521A6197F906307B
:10054C0003F01F035AB297F9073013435BB2DBB2C7
:10055C00184600F08FFB97F90630002B02DA0020CA
:10056C0000F088FB002000F085FB0346FB73044B76
:10057C004FF480521A61FB7B18461037BD4680BD84
:10058C00000C014080B582B000AF0346FB710B46F6
:10059C00BB7113467B710E4B4FF080521A6197F969
:1005AC00063003F01F035AB297F9073013435BB2BE
:1005BC00DBB2184600F05EFB7B79184600F05AFB64
:1005CC00034B4FF480521A6100BF0837BD4680BD03
:1005DC00000C014080B584B000AF0346FB71FB7981
:1005EC0003F01F031A2B18DCFB795B09DBB203F059
:1005FC000303FB730B4B1B78FA7B9A420DD003223F
:10060C001F21A020FFF7BEFFFB7B1A461F21802075
:10061C00FFF7B8FF034AFB7B137000BF1037BD46D2
:10062C0080BD00BF5C04002080B582B000AF0E4BD3
:10063C004FF080521A61FF2000F01CFB0A4B4FF464
:10064C0080521A61094B00221A7000237B6002E071
:10065C007B6801337B607B68054A9342F8D900BF05
:10066C0000BF0837BD4680BD000C01405C04002073
:10067C003F420F0080B582B000AF0346FB71FB799F
:10068C001846FFF7A7FFFB7919460020FFF74AFF32
:10069C00034618460837BD4680BD90B583B000AF01
:1006AC000346FB71FB791846FFF794FFFB7919465B
:1006BC000020FFF737FF03461CB2FB790133DBB296
:1006CC0019460020FFF72EFF03461B021BB22343E3
:1006DC001BB29BB218460C37BD4690BD80B582B09C
:1006EC0000AF03460A46FB711346BB71FB791846F3
:1006FC00FFF770FFBA79FB7919464020FFF742FFEC
:10070C0000BF0837BD4680BD80B582B000AF034640
:10071C000A46FB711346BB80FB791846FFF75AFF5C
:10072C00BB88DAB2FB7919464020FFF72BFFFB7927
:10073C000133D9B2BB881B0A9BB2DBB21A464020EC
:10074C00FFF720FF00BF0837BD4680BD80B582B0E3
:10075C0000AF03460A46FB711346BB71FB79184682
:10076C00FFF738FFBA79FB791946A020FFF70AFF8B
:10077C0000BF0837BD4680BD80B582B000AF0346D0
:10078C000A46FB711346BB71FB791846FFF722FF33
:10079C00BA79FB7919468020FFF7F4FE00BF0837C1
:1007AC00BD4680BD80B584B000AF03460A46FB71E0
:1007BC001346BB71FB791846FFF70CFFFB79194602
:1007CC000020FFF7AFFE0346FB7397F90630DB43BF
:1007DC005AB297F90F3013405BB2FB73FA7BFB797B
:1007EC0019464020FFF7CEFE00BF1037BD4680BD36
:1007FC0080B584B000AF03460A46FB711346BB714B
:10080C00FB791846FFF7E6FEFB7919460020FFF747
:10081C0089FE0346FB73FA7BBB791343FB73FA7BAC
:10082C00FB7919464020FFF7ADFE00BF1037BD46DF
:10083C0080BD80B582B000AF78600B467B80104BDA
:10084C004FF080521A613A2000F014FA0CE00020AC
:10085C0000F010FA03461A467B681A707B68013365
:10086C007B607B88013B7B807B88002BEFD1044B2A
:10087C004FF480521A6100BF0837BD4680BD00BFDF
:10088C00000C014080B582B000AF78600B467B80D5
:10089C000E4B4FF080521A617A2000F0EBF90AE00F
:1008AC007B681B78184600F0E5F97B6801337B60A8
:1008BC007B88013B7B807B88002BF1D1034B4FF471
:1008CC0080521A6100BF0837BD4680BD000C014044
:1008DC0080B582B000AF0346FB71FB791946D4207A
:1008EC00FFF7FCFE0121D220FFF782FF00BFEA20B8
:1008FC00FFF7C0FE034603F00103002BF7D10121E3
:10090C00D220FFF74FFFD820FFF7C7FE034618464B
:10091C000837BD4680BD80B582B000AF03460A469D
:10092C00FB711346BB80FB791946D420FFF7D6FE2A
:10093C00BB881946D620FFF7E7FE00BFEA20FFF779
:10094C0099FE034603F00103002BF7D100BF00BF53
:10095C000837BD4680BD80B582B000AF786000F02E
:10096C0001F900F06BF9FFF75FFE00210820FFF79B
:10097C00CBFE00210C20FFF7C7FE41F6FF110A2029
:10098C00FFF7C2FE2D4B00221A800D21C020FFF76D
:10099C00A5FE3321C220FFF7A1FE40F2EE51CA2082
:1009AC00FFF7B2FE1521C420FFF798FE1221C620D6
:1009BC00FFF794FE0C21C720FFF790FE7B681B7895
:1009CC001946E120FFF78AFE7B6801331B78194634
:1009DC00E020FFF783FE7B6802331B781946E32087
:1009EC00FFF77CFE7B6803331B781946E220FFF788
:1009FC0075FE7B6804331B781946E520FFF76EFE05
:100A0C007B6805331B781946E420FFF767FE4FF42B
:100A1C0080710020FFF77FFF4FF480711020FFF7EB
:100A2C007AFF40F276411420FFF775FF04211F2056
:100A3C00FFF7A2FE00BF0837BD4680BD5E04002054
:100A4C0080B582B000AF78600B467B800FE01C2035
:100A5C00FFF710FE034603F00203002B07D08021A2
:100A6C001F20FFF789FE80211F20FFF76FFE1F203C
:100A7C00FFF700FE034603F00803002BE7D14FF409
:100A8C00D0510220FFF740FE01210E48FFF7FAFE7D
:100A9C007B8819467868FFF7F5FE4FF4D051042097
:100AAC00FFF732FE7B8803F5D0539BB21946062024
:100ABC00FFF72AFE08211F20FFF75EFE00BF083754
:100ACC00BD4680BDFC19000880B584B000AF7860CD
:100ADC000B467B800023FB813920FFF7CBFD0346BF
:100AEC00002B38D01E4B1B8819460020FFF70CFE3C
:100AFC0002211B48FFF79DFE07F10A03022118464D
:100B0C00FFF797FE07F1080302211846FFF791FE45
:100B1C003B8903F08003002B0DD07B89043BFB81C8
:100B2C00FA897B889A4201D97B88FB81FB8919461B
:100B3C007868FFF77EFE0A4B1B88013B9BB2C3F320
:100B4C000C03BB81BB8919460C20FFF7DDFD40214E
:100B5C001E20FFF711FEFB8918461037BD4680BDDD
:100B6C005E04002080B400AF314B9B69304A43F0E7
:100B7C00090393612F4B5B682E4A9BB253602D4B3C
:100B8C005B682C4A43F4403353602A4B5B68294A18
:100B9C0043F430035360274B5B68264A43F0806371
:100BAC005360244B5B68234A43F030435360204B23
:100BBC00DB691F4A43F48043D3611F4B1B681E4AF9
:100BCC0023F0020313601C4B1B681B4A23F0010328
:100BDC001360194B1B68184A43F004031360164B3F
:100BEC001B68154A43F008031360134B1B68124A29
:100BFC0023F080031360104B1B680F4A43F44073BF
:100C0C0013600D4B1B680C4A23F4806313600A4B72
:100C1C001B68094A23F400631360074B00225A60D7
:100C2C00044B4FF480521A6100BFBD4680BC704724
:100C3C0000100240000C01400038004080B400AFAE
:100C4C00044B1B68034A43F04003136000BFBD46CE
:100C5C0080BC70470038004080B400AF044B1B6868
:100C6C00034A23F04003136000BFBD4680BC7047AD
:100C7C000038004080B483B000AF0346FB7100BF66
:100C8C000C4B9B6803F00203002BF9D0094AFB794B
:100C9C00D36000BF074B9B6803F00103002BF9D016
:100CAC00044BDB68FB71FB7918460C37BD4680BCE6
:100CBC00704700BF0038004080B400AF074BDB68C2
:100CCC00064A43F08073D360054B1B68044A43F01B
:100CDC000103136000BFBD4680BC7047F0ED00E01F
:100CEC00001000E080B485B000AF78600C4B1B683E
:100CFC000C4AA2FB03239A0C7B6802FB03F3FB60F8
:100D0C00094B00225A6000BF074B5B68FA689A4295
:100D1C00FAD800BF00BF1437BD4680BC704700BF77
:100D2C000000002083DE1B43001000E080B485B07F
:100D3C0000AF78600C4B1B680C4AA2FB03239A098A
:100D4C007B6802FB03F3FB60094B00225A6000BF77
:100D5C00074B5B68FA689A42FAD800BF00BF143799
:100D6C00BD4680BC704700BF00000020D34D621010
:100D7C00001000E080B483B000AF0346FB7197F91C
:100D8C000730002B0BDBFB7903F01F02064997F9A8
:100D9C0007305B09012000FA02F241F8232000BF62
:100DAC000C37BD4680BC704700E100E080B483B0D6
:100DBC0000AF224B1B6803F08003002B1BD0204B91
:100DCC001B78FB711F4B1B78FA799A420DD0FB797B
:100DDC001D4AD25C194B5A60FB790133DBB203F02C
:100DEC007F03DAB2164B1A7023E0144BDB68134AFC
:100DFC0023F08003D360114B1B6803F02003002BFE
:100E0C0017D0124B1B780133DBB203F07F03BB719D
:100E1C000A4B5B687B710E4B1B78BA799A4208D0EF
:100E2C000A4B1B7819460B4A7B795354074ABB79FA
:100E3C0013700C37BD4680BC704700BF00440040A7
:100E4C00E4040020E5040020E804002061040020F4
:100E5C00600400206404002080B400AF064B1A78B4
:100E6C00064B1B78D31ADBB203F07F03DBB21846B8
:100E7C00BD4680BC704700BF6104002060040020A8
:100E8C0080B483B000AF0E4B1B78FB710D4B1B78FD
:100E9C00FA799A420DD0FB790B4AD35CBB71FB7982
:100EAC000133DBB203F07F03DAB2054B1A70BB7966
:100EBC0000E0002318460C37BD4680BC704700BFCD
:100ECC0060040020610400206404002080B485B01C
:100EDC0000AF0346FB71104B1B780133DBB203F000
:100EEC007F03FB730D4B1B78FA7B9A420ED00A4B97
:100EFC001B7819460A4AFB795354074AFB7B13703B
:100F0C00084BDB68074A43F08003D36000BF1437FB
:100F1C00BD4680BC704700BFE5040020E4040020FF
:100F2C00E80400200044004080B582B000AF786037
:100F3C0007E07B681B781846FFF7C8FF7B68013316
:100F4C007B607B681B78002BF3D100BF00BF083798
:100F5C00BD4680BD80B584B000AF78600B46FB7099
:100F6C000023FB7309E0FB7B7A6813441B7818465B
:100F7C00FFF7ACFFFB7B0133FB73FA7BFB789A42E8
:100F8C00F1D300BF00BF1037BD4680BD80B582B025
:100F9C0000AF0346FB8000F008F8FB88184600F011
:100FAC0027F800BF0837BD4680BD80B400AF0E4B9C
:100FBC009B690D4A43F0050393610C4B1B680B4A6C
:100FCC0023F47F431360094B1B68084A43F43063D6
:100FDC001360064B1B68054A43F43043136000BF93
:100FEC00BD4680BC704700BF0010024000080140A5
:100FFC0080B582B000AF0346FB80134BDB69124A0D
:10100C0043F40033D361114B0022DA600F4BDB68E1
:10101C000E4A23F48053D3600C4BDB680B4A43F02D
:10102C002C03D360094B1B69084A23F4405313610A
:10103C00064AFB8893602620FFF79CFE00F008F818
:10104C0000BF0837BD4680BD001002400044004080
:10105C0080B400AF044BDB68034A43F40053D36005
:10106C0000BFBD4680BC70470044004080B500AF57
:10107C000248FFF770FC00BF80BD00BF04000020D9
:10108C0080B582B000AF0B4B7B6004E07B881946C7
:10109C00786800F033F840F2EE510648FFF714FD83
:1010AC0003467B807B88002BF0D100BF00BF083744
:1010BC00BD4680BD6805002080B582B000AF786069
:1010CC000B467B8078687B6806330622194600F055
:1010DC00F7FA7B680633084A1068186092889A8081
:1010EC007B880E339BB219467868FFF7A9FC00BFCA
:1010FC000837BD4680BD00BF0400002080B582B01B
:10110C0000AF78600B467B807B880D2B17D97B68F2
:10111C009B899BB2082B0AD0B3F5C16F10D17B8889
:10112C000E3B9BB21946786800F00EF808E07B88FD
:10113C000E3B9BB21946786800F0AAF900E000BF9C
:10114C0000BF0837BD4680BD80B584B000AF786065
:10115C000B467B807B680E33FB607B881B2B74D922
:10116C00FB681B889BB2B3F5807F6ED1FB685B88F4
:10117C009BB2082B69D1FB689A69374B1B689A4262
:10118C0063D1FB68DB889BB2B3F5807F03D0B3F5EA
:10119C00007F26D05CE0FB6800229A71002242F0AE
:1011AC000202DA71FB6803F11200FB6808330622B5
:1011BC00194600F085FAFB680833062227491846C1
:1011CC0000F07EFAFB68D3F80E20FB689A61224B84
:1011DC001A68FB68C3F80E201C217868FFF76CFFB7
:1011EC0036E0FB68D3F80E30184600F03DF80346A5
:1011FC00002B2CD11A4B1B781846FB68D3F80E2009
:10120C00184903469B0003445B000B441A60144BC3
:10121C001B781A4613469B0013445B00114A134477
:10122C00181DFB6808330622194600F049FA0C4BCE
:10123C001B780133DAB20A4B1A70094B1B78032B5B
:10124C0005D1074B00221A7001E000BF00E000BF7F
:10125C0000BF1037BD4680BD0C00002004000020EC
:10126C00580B00205C0B002080B485B000AF786078
:10127C000023FB7316E0FA7B0F4913469B001344C3
:10128C005B000B441B687A689A4208D1FA7B1346C0
:10129C009B0013445B00084A1344043306E0FB7BB9
:1012AC000133FB73FB7B022BE5D900231846143763
:1012BC00BD4680BC704700BF5C0B002080B586B07B
:1012CC0000AF7860294B7B617B690E333B6178689A
:1012DC00FFF7CAFFF860FB68002B01D0FB6840E009
:1012EC007B690622FF21184600F0A8FA7B690022D0
:1012FC0042F008021A73002242F006025A733B694C
:10130C0000221A70002242F001025A703B6900223E
:10131C0042F008029A700022DA703B6906221A71B8
:10132C003B6904225A713B6900229A71002242F0F7
:10133C000102DA713B69083306220D49184600F0A8
:10134C00BFF90C4B1A683B69C3F80E203B6912338A
:10135C0006220021184600F071FA3B697A689A61FE
:10136C00002318461837BD4680BD00BF6805002015
:10137C00040000200C00002080B485B000AFF860A1
:10138C00B9601346FB8010E0BB681B781B02BA687F
:10139C000132127813431A46FB681344FB60BB6896
:1013AC000233BB60FB88023BFB80FB88012BEBD834
:1013BC00FB88002B0DD0BB681B781B021A46FB6800
:1013CC001344FB6005E0FB689AB2FB681B0C1344EA
:1013DC00FB60FB681B0C002BF5D1FB689BB21B0A56
:1013EC009BB21AB2FB689BB21B021BB213431BB21B
:1013FC009BB2DB439BB218461437BD4680BC70478A
:10140C0080B584B000AF78600B467B807B680E3370
:10141C00FB607B8814331B0A9BB2DBB29AB27B88CD
:10142C0014339BB21B029BB213439AB2FB685A80D3
:10143C00FB6800221A7100225A71FB6800229A7113
:10144C000022DA71FB6840221A72FB6800229A7241
:10145C000022DA72FB68DA68FB681A610B4B1A68B7
:10146C00FB68DA601422F9680020FFF785FF034659
:10147C001A46FB685A817B8814339BB219467868EC
:10148C00FFF71AFE00BF1037BD4680BD0C000020D0
:10149C0080B584B000AF78600B467B807B680E33E0
:1014AC00FB607B88132B2CD9FB681B78452B28D130
:1014BC00FB681A69154B1B689A4222D1FB685B8842
:1014CC009BB21B0A9BB21AB2FB685B889BB21B02D5
:1014DC001BB213431BB29BB2143B7B80FB685B7A41
:1014EC00012B02D0112B06D00CE07B8819467868B2
:1014FC0000F00EF806E07B881946786800F02EF8AC
:10150C0000E000BF00BF1037BD4680BD0C000020BE
:10151C0080B584B000AF78600B467B807B680E335F
:10152C00FB60FB681433BB607B88072B12D9BB684C
:10153C001B78082B0ED1BB6800221A70BB685B8825
:10154C009BB208339AB2BB685A807B88194678687C
:10155C00FFF756FF00BF1037BD4680BD80B584B085
:10156C0000AF78600B467B807B680E33FB60FB68BA
:10157C001433BB607B88072B13D9BB689B889BB249
:10158C001B0A9BB21AB2BB689B889BB21B021BB294
:10159C0013431BB29BB2083B9BB21946786800F010
:1015AC004BF800BF1037BD4680BD80B586B000AF8C
:1015BC0078600B467B807B680E337B617B691433D0
:1015CC003B617B8808337B803B691A785B781B0214
:1015DC001343FB813B695B889AB23B691A803B6978
:1015EC00FA895A807B881B0A9BB21AB27B881B0231
:1015FC001BB213431BB29AB23B699A803B6900221F
:10160C009A710022DA717B88113318463B69A3F179
:10161C0008017B8808339BB21A46FFF7ADFE0346E0
:10162C001A463B69DA807B8819467868FFF7E8FE32
:10163C0000BF1837BD4680BD90B589B000AF78604B
:10164C000B467B807B680E33BB61BB6914337B61BB
:10165C007B6908333B610023FB7709E0FB7F3A6928
:10166C0013441B781846FFF731FCFB7F0133FB77E3
:10167C00FB7F9BB27A889A42F0D8FFF7EDFB0346CA
:10168C00FB73FB7B002B16D00023BB7709E0BB7FE1
:10169C003A69D418FFF7F4FB03462370BB7F013380
:1016AC00BB77BA7FFB7B9A42F1D3FB7B9BB219468B
:1016BC007868FFF77AFF00BF2437BD4690BD000065
:1016CC00844641EA000313F0030349D1403A23D383
:1016DC000B6803604B6843608B688360CB68C360A6
:1016EC000B6903614B6943618B698361CB69C3618E
:1016FC000B6A03624B6A43628B6A8362CB6AC36276
:10170C000B6B03634B6B43638B6B8363CB6BC3635D
:10171C0040304031403ADBD230320BD30B6803609F
:10172C004B6843608B688360CB68C36010301031AA
:10173C00103AF3D20C3205D351F8043B40F8043B79
:10174C00043AF9D2043208D0D2071CBF11F8013B7D
:10175C0000F8013B01D30B8803806046704700BF43
:10176C00082A13D38B07B1D010F00303AED0C3F10A
:10177C000403D21ADB071CBF11F8013B00F8013B34
:10178C00A4D331F8023B20F8023B9FE7043AD9D3AB
:10179C00013A11F8013B00F8013BF9D20B780370C8
:1017AC004B7843708B78837060467047002103E060
:1017BC000A4B5B584350043109480A4B42189A4271
:1017CC00F6D3094A02E0002342F8043B074B9A4245
:1017DC00F9D300F00FF8FEF7C5FC7047101A00089B
:1017EC00000000203C0400203C040020800B002062
:1017FC00FEE7000070B50D4E0D4D761BB61006D0F1
:10180C00002455F8043B01349847A642F9D1094EFF
:10181C00094D00F0D5F8761BB61006D0002455F80B
:10182C00043B01349847A642F9D170BD041A000854
:10183C00041A00080C1A0008041A0008830730B5B3
:10184C0048D0541E002A3FD00346CAB201E0013CE6
:10185C003AD303F8012B9D07F9D1032C2DD9CDB226
:10186C0045EA05250F2C45EA054536D9A4F11002A9
:10187C0022F00F0C03F1200EE6444FEA121C03F188
:10188C00100242E9045542E9025510327245F8D172
:10189C000CF1010214F00C0F03EB021204F00F0C0C
:1018AC0013D0ACF1040323F003030433134442F8C4
:1018BC00045B9342FBD10CF003042CB1CAB21C4460
:1018CC0003F8012B9C42FBD130BD64461346002C1F
:1018DC00F4D1F9E703461446BFE71A46A446E0E7FD
:1018EC00024B13B1024800F005B87047000000002D
:1018FC000D190008002301461A46184600F01AB8C4
:10190C0038B5084B084D5B1B9C1007D0043B1D449D
:10191C00013C55F804399847002CF9D1BDE8384002
:10192C0000F054B8101A00080C1A0008704700BFD9
:10193C00704700BF2DE9F047DFF87CA00646DAF8C7
:10194C00000098460F469146FFF7F0FF1B4B1B68B3
:10195C00D3F8484124B365681F2D26DC5EB96B1C97
:10196C000235DAF80000636044F82570FFF7E0FFF9
:10197C000020BDE8F087012304EB8501C1F88890B5
:10198C00D4F88821AB401A43022EC4F88821C1F840
:10199C000881E4D1D4F88C211343C4F88C31DEE7F0
:1019AC0003F5A674C3F84841D5E7DAF80000FFF751
:1019BC00BFFF4FF0FF30DCE738040020001A0008AE
:1019CC00F8B500BFF8BC08BC9E467047F8B500BF20
:0819DC00F8BC08BC9E467047F0
:1019E40000000000000000000102030406070809CB
:1019F40000000000010203040000000010000020A9
:081A0400ED1800083101000893
:041A0C000D010008C0
:101A100000A24A040013370123450000C0A800DEDD
:101A200000000000FC02002064030020CC03002022
:101A300000000000000000000000000000000000A6
:101A40000000000000000000000000000000000096
:101A50000000000000000000000000000000000086
:101A60000000000000000000000000000000000076
:101A70000000000000000000000000000000000066
:101A80000000000000000000000000000000000056
:101A90000000000000000000000000000000000046
:101AA0000000000000000000000000000000000036
:101AB0000000000000000000000000000000000026
:101AC0000000000000000000010000000000000015
:101AD0000E33CDAB34126DE6ECDE05000B000000DA
:101AE00000000000000000000000000000000000F6
:101AF00000000000000000000000000000000000E6
:101B000000000000000000000000000000000000D5
:101B100000000000000000000000000000000000C5
:0C1E400000000000000000007C0B0020EF
:04000005080017B91F
:00000001FF
